:100000000C9446000C945D000C945D000C945D0013
:100010000C945D000C945D000C945D000C945D00EC
:100020000C945D000C945D000C945D000C945D00DC
:100030000C945D000C945D000C945D000C945D00CC
:100040000C945D000C945D000C945D000C945D00BC
:100050000C945D000C945D000C945D000C945D00AC
:100060000C945D000C945D000C945D000C945D009C
:100070000C945D000C945D000C945D000C945D008C
:100080000C945D000C945D000C945D0011241FBE67
:10009000CFEFD0E4DEBFCDBF11E0A0E0B1E0ECEAED
:1000A000F1E000E00BBF02C007900D92AE30B10747
:1000B000D9F70E9488000C94D4000C940000CF93D0
:1000C000DF9300D01F92CDB7DEB789837B836A832D
:1000D00089818A3031F48A819B81BC018DE00E9444
:1000E0005F0080EC90E0FC018081882F90E08072BE
:1000F00099270097B1F386EC90E02981FC012083D9
:1001000080E090E00F900F900F90DF91CF910895D5
:10011000CF93DF9300D01F92CDB7DEB784E290E09B
:1001200026E0FC01208385E290E0FC0110828AE257
:1001300090E0FC0110828BE290E0FC0110821982B9
:100140001B821A82198289E290E0FC018081882F4B
:1001500090E09C01220F331F83E290E0FC0180813C
:10016000882F90E081709927822B932B9B838A8321
:100170008A819B818634910524F0898182608983FC
:1001800008C08A819B81863091051CF0898184603A
:10019000898385E290E025E230E0F9013081298110
:0C01A000232BFC012083CECFF894FFCF6E
:0E01AC0000000002000000005F0000000000E4
:00000001FF
