:100000000C9446000C945D000C945D000C945D0013
:100010000C945D000C945D000C945D000C945D00EC
:100020000C945D000C945D000C945D000C945D00DC
:100030000C945D000C945D000C945D000C945D00CC
:100040000C945D000C945D000C945D000C945D00BC
:100050000C945D000C945D000C945D000C945D00AC
:100060000C945D000C945D000C945D000C945D009C
:100070000C945D000C945D000C945D000C945D008C
:100080000C945D000C945D000C945D0011241FBE67
:10009000CFEFD0E4DEBFCDBF11E0A0E0B1E0E8EDEE
:1000A000F1E000E00BBF02C007900D92AE30B10747
:1000B000D9F70E9488000C94EA000C940000CF93BA
:1000C000DF9300D01F92CDB7DEB789837B836A832D
:1000D00089818A3031F48A819B81BC018DE00E9444
:1000E0005F0080EC90E0FC018081882F90E08072BE
:1000F00099270097B1F386EC90E02981FC012083D9
:1001000080E090E00F900F900F90DF91CF910895D5
:10011000CF93DF93CDB7DEB727970FB6F894DEBF46
:100120000FBECDBF81E290E0FC01108282E290E040
:10013000FC01108284E290E0FC01108285E290E0F4
:10014000FC01108287E290E02FEFFC01208388E21F
:1001500090E0FC0110821C821D8219821E821F8287
:10016000198282E290E0FC0180818C8385E290E03C
:10017000FC0180818D831B821A8221C08C81882F93
:1001800090E00A8002C0959587950A94E2F7817005
:100190008E838D81882F90E00A8002C09595879587
:1001A0000A94E2F781708F839E818F81890F9981F4
:1001B000890F89838A819B8101969B838A838A81A7
:1001C0009B8188309105D4F288E290E02981FC017E
:0801D0002083C6CFF894FFCF95
:0E01D80000000002000000005F0000000000B8
:00000001FF
