:100000000C9446000C945D000C945D000C945D0013
:100010000C945D000C945D000C945D000C945D00EC
:100020000C945D000C945D000C945D000C945D00DC
:100030000C945D000C945D000C945D000C945D00CC
:100040000C945D000C945D000C945D000C945D00BC
:100050000C945D000C945D000C945D000C945D00AC
:100060000C945D000C945D000C945D000C945D009C
:100070000C945D000C945D000C945D000C945D008C
:100080000C945D000C945D000C945D0011241FBE67
:10009000CFEFD0E4DEBFCDBF11E0A0E0B1E0E2EEF3
:1000A000F1E000E00BBF02C007900D92AE30B10747
:1000B000D9F70E9488000C94EF000C940000CF93B5
:1000C000DF9300D01F92CDB7DEB789837B836A832D
:1000D00089818A3031F48A819B81BC018DE00E9444
:1000E0005F0080EC90E0FC018081882F90E08072BE
:1000F00099270097B1F386EC90E02981FC012083D9
:1001000080E090E00F900F900F90DF91CF910895D5
:10011000CF93DF9300D01F92CDB7DEB781E290E09E
:10012000FC01108282E290E0FC01108287E290E004
:100130002FEFFC01208388E290E0FC0110821B82FB
:1001400019821A8280E290E0FC0180818F708B839B
:1001500019828B818D3018F08981816089838B8130
:100160008A3018F08981826089838B81873018F00A
:100170008981846089838B81853018F089818860CA
:1001800089838B81833018F08981806189838B8199
:10019000882319F08981806289838B81853018F4E6
:1001A00080E48A8301C01A828B81882F90E0807757
:1001B0009927959587959595879595958795959583
:1001C00087958330910519F489818068898388E255
:1001D00090E039812A81232BFC012083B3CFF8944E
:0201E000FFCF4F
:0E01E20000000002000000005F0000000000AE
:00000001FF
